:03000000020E1FCE
:0C0E1F00787FE4F6D8FD758140020D9C40
:100CEB0054454D50523A46414E4F4E4854524F4E3A
:100CFB0053504545443A4C4556454C0048454154A4
:100D0B003A4C4556454C004E4F524D2E46414E2CBB
:070D1B00485452204F4646E8
:070D5000120DCD7F1E7E0095
:100D5700E4FDFCC3ED9FEC9E5015E4FBFA0BBB00D2
:0F0D6700010ABA04F8BBFBF50DBD00010C80E4D6
:010D7600225A
:100E0100D297C2A0D2A1309706C2A2D2A280F72265
:070DD800AF09120D227F8B11
:0E0DDF00120E018F90C2A0C2A1D2A2C2A22207
:100DED007F38120DDF7F0C120DDF7F01120DDF7FBB
:040DFD0080020DDF84
:0E0DBF007F327E00120D57740A2508F8E6FFF9
:0B0DCD008F90D2A0C2A1D2A2C2A2222D
:100D7700AE05A907AF06120D50120D57AF01120DA0
:100D8700CD7F1E120D577F20120D577F1E120D5754
:050D97007F43020DCDB9
:100D2200EF75F00A120C80FEEF75F00A120C80AF1C
:100D3200F0EE75F00A120C80ADF0EE75F00A120CAE
:0E0D420080FE430730430530430630020D7734
:070CA2007F86120DDFAF0990
:100CA900EF75F00A120C80FEEF75F00A120C80AF96
:100CB900F0A907EE75F00A120C80AFF0EE75F00A94
:100CC900120C80FE430130430730430630120D50A9
:100CD900120D57AF01120DCD7F1E120D577FC002A5
:020CE9000DDF1D
:0D0E1100C2A4D2A420A3FDC2A5AFB0D2A5FB
:010E1E0022B1
:10080000780A7C007D007BFF7A0C79EB7E007F0606
:10081000120C5A78107C007D007BFF7A0C79F17EF7
:10082000007F05120C5A78157C007D007BFF7A0C46
:1008300079F67E007F05120C5A781A7C007D007BC9
:10084000FF7A0C79FB7E007F0C120C5A78267C0014
:100850007D007BFF7A0D79077E007F0B120C5A78A2
:10086000317C007D007BFF7A0D79127E007F0512BE
:100870000C5A78367C007D007BFF7A0D79177E005C
:100880007F0B120C5A120E118F09C3EF941474804F
:10089000948040030209947F01120DDFE4F508C340
:1008A000E5089406748094805007120DBF050880F7
:1008B000EE120DD8E4F508C3E50894057480948021
:1008C000500C120D537415120DC8050880E9AF09BC
:1008D0007E00D3EF940A748094804055EF94147492
:1008E000809480504CD2A6D281C2807F01120D57D5
:1008F0007530317FC0120DDFE4F508C3E508940BB5
:1009000074809480500C120D537426120DC8050883
:1009100080E9120E118F097E00D3EF940A7480943F
:1009200080400EEF9414748094805005120CA280C5
:10093000E17E00C374809480405AD3E509940A7420
:10094000809480504FD2A6C2807F1E120D57C28164
:100950007F01120D577FC0120DDF753032E4F508AC
:10096000C3E508940B74809480500C120D537426C8
:10097000120DC8050880E9120E118F097E00C3749C
:10098000809480400FD3EF940A74809480500512B5
:100990000CA280E3AF097E00C3EF941474809480AE
:1009A0005003020A2EEF9419748094804003020AC7
:1009B0002ED280D281D2A67F01120DDFE4F508C3CA
:1009C000E5089406748094805007120DBF050880D6
:1009D000EEAF09120D22E4F508C3E5089405748012
:1009E0009480500C120D537431120DC8050880E923
:1009F0007FC0120DDFE4F508C3E508940B74809402
:100A000080500C120D537436120DC8050880E9127F
:100A10000E118F097E00C3EF941474809480400EF1
:100A2000EF9419748094805005120CA280E1C3E504
:100A3000099419748094805003020885D280D28171
:100A40007F01120DDFE4F508C3E508940674809475
:100A5000805007120DBF050880EE120DD8E4F5088E
:100A6000C3E508940574809480500C120D537410E3
:100A7000120DC8050880E9AF097E00C3EF94197410
:100A80008094804056EF941E74809480504D7FC0B7
:100A9000120DDF752531E4F508C3E508940C748068
:100AA0009480500C120D53741A120DC8050880E979
:100AB000C2A67F327E00120D57D2A6120D57120E1B
:100AC000118F09C3EF941974809480400EEF941E27
:100AD000748094805005120CA280D5AF097E00C3AB
:100AE000EF941E748094804058EF94237480948017
:100AF000504F7525327FC0120DDFE4F508C3E508BD
:100B0000940C74809480500C120D53741A120DC8FA
:100B1000050880E9C2A67F4B7E00120D57D2A67F42
:100B200019120D57120E118F09C3EF941E74809481
:100B300080400EEF9423748094805005120CA280A4
:100B4000D3C3E5099423748094805003020885750B
:100B500025337FC0120DDFE4F508C3E508940C745B
:100B6000809480500C120D53741A120DC805088021
:100B7000E9C2A6120E118F09C3EF942374809480EA
:0A0B80005003020885120CA280E762
:100D9C007580FF75B0FFD2A3D2A5D2A4D2A6C28013
:100DAC00C2817F327E00120D57D280D281120DED9E
:030DBC000208002A
:100B8A00E709F608DFFA8046E709F208DFFA803E4D
:100B9A0088828C83E709F0A3DFFA8032E309F6083A
:100BAA00DFFA8078E309F208DFFA807088828C83A2
:100BBA00E309F0A3DFFA806489828A83E0A3F60856
:100BCA00DFFA805889828A83E0A3F208DFFA804C30
:100BDA0080D280FA80C680D4806980F28033801007
:100BEA0080A680EA809A80A880DA80E280CA803370
:100BFA0089828A83ECFAE493A3C8C582C8CCC583E8
:100C0A00CCF0A3C8C582C8CCC583CCDFE9DEE780B7
:100C1A000D89828A83E493A3F608DFF9ECFAA9F036
:100C2A00EDFB2289828A83ECFAE0A3C8C582C8CC8C
:100C3A00C583CCF0A3C8C582C8CCC583CCDFEADEA5
:100C4A00E880DB89828A83E493A3F208DFF980CC07
:100C5A0088F0EF60010E4E60C388F0ED2402B40400
:100C6A000050B9F582EB2402B4040050AF232345A7
:060C7A008223900BDA73E7
:100C8000C2D530F707B2D563F0FF05F030E70CB2FC
:100C9000D5F4048463F0FF05F080018430D502F4BC
:020CA00004222C
:00000001FF
